{
  "contractName": "ContadorContract",
  "abi": [
    {
      "inputs": [
        {
          "internalType": "uint256",
          "name": "valor",
          "type": "uint256"
        }
      ],
      "name": "sumar",
      "outputs": [],
      "stateMutability": "nonpayable",
      "type": "function"
    },
    {
      "inputs": [
        {
          "internalType": "uint256",
          "name": "valor",
          "type": "uint256"
        }
      ],
      "name": "restar",
      "outputs": [],
      "stateMutability": "nonpayable",
      "type": "function"
    },
    {
      "inputs": [],
      "name": "ver",
      "outputs": [
        {
          "internalType": "uint256",
          "name": "",
          "type": "uint256"
        }
      ],
      "stateMutability": "view",
      "type": "function"
    }
  ],
  "bytecode": "0x60806040526000805534801561001457600080fd5b50610254806100246000396000f3fe608060405234801561001057600080fd5b50600436106100415760003560e01c80634cd2664b1461004657806365c43cc714610062578063df94c33714610080575b600080fd5b610060600480360381019061005b919061010e565b61009c565b005b61006a6100b3565b604051610077919061014a565b60405180910390f35b61009a6004803603810190610095919061010e565b6100bc565b005b806000546100aa9190610194565b60008190555050565b60008054905090565b806000546100ca91906101c8565b60008190555050565b600080fd5b6000819050919050565b6100eb816100d8565b81146100f657600080fd5b50565b600081359050610108816100e2565b92915050565b600060208284031215610124576101236100d3565b5b6000610132848285016100f9565b91505092915050565b610144816100d8565b82525050565b600060208201905061015f600083018461013b565b92915050565b7f4e487b7100000000000000000000000000000000000000000000000000000000600052601160045260246000fd5b600061019f826100d8565b91506101aa836100d8565b9250828210156101bd576101bc610165565b5b828203905092915050565b60006101d3826100d8565b91506101de836100d8565b9250827fffffffffffffffffffffffffffffffffffffffffffffffffffffffffffffffff0382111561021357610212610165565b5b82820190509291505056fea26469706673582212203b920bb8817dc830802708f855bc58d4d3f3d5b6fff107d3f94cea190b8c45a764736f6c634300080c0033",
  "immutableReferences": {},
  "source": "pragma solidity ^0.8.12;\r\n\r\n/*contract TestContract {\r\n    uint256[] randomNum = [23, 1, 3, 4];\r\n\r\n    function findPosition(uint256 x) public view returns (uint256) {\r\n        for (uint256 i = 0; i < randomNum.length; i++) {\r\n            if (x == randomNum[i]) {\r\n                return i;\r\n            }\r\n        }\r\n    }\r\n}\r\n*/\r\n\r\n//Crear un smart contract que funcione como contador. Tiene q tener dos funciones, una para sumar y otra para restar. Ademas tenemos q poder acceder al valor actual de contador.\r\n\r\n\r\ncontract ContadorContract {\r\n    uint contador = 0;\r\n    \r\n    function sumar (uint valor) public {\r\n        contador = contador + valor;\r\n    }\r\n\r\n    function restar (uint valor) public {\r\n        contador = contador - valor;\r\n    }\r\n    function ver () public view returns (uint) {\r\n        return contador;\r\n    }\r\n}",
  "sourcePath": "C:\\Users\\Pablo\\Desktop\\DappPrimera\\Test\\contracts\\TestContract.sol",
  "compiler": {
    "name": "solc",
    "version": "0.8.12+commit.f00d7308.Emscripten.clang"
  },
  "schemaVersion": "3.4.6",
  "updatedAt": "2022-03-22T00:48:04.456Z",
  "devdoc": {
    "kind": "dev",
    "methods": {},
    "version": 1
  },
  "userdoc": {
    "kind": "user",
    "methods": {},
    "version": 1
  }
}