{
  "contractName": "TestContract",
  "abi": [
    {
      "inputs": [
        {
          "internalType": "uint256",
          "name": "x",
          "type": "uint256"
        }
      ],
      "name": "findPosition",
      "outputs": [
        {
          "internalType": "uint256",
          "name": "",
          "type": "uint256"
        }
      ],
      "stateMutability": "view",
      "type": "function",
      "constant": true
    }
  ],
  "bytecode": "0x60806040526040518060800160405280601760ff168152602001600160ff168152602001600360ff168152602001600460ff168152506000906004610045929190610058565b5034801561005257600080fd5b506100c7565b828054828255906000526020600020908101928215610099579160200282015b82811115610098578251829060ff16905591602001919060010190610078565b5b5090506100a691906100aa565b5090565b5b808211156100c35760008160009055506001016100ab565b5090565b61022d806100d66000396000f3fe608060405234801561001057600080fd5b506004361061002b5760003560e01c8063ca1e70ca14610030575b600080fd5b61004a600480360381019061004591906100f9565b610060565b6040516100579190610135565b60405180910390f35b600080600090505b6000805490508110156100b7576000818154811061008957610088610150565b5b90600052602060002001548314156100a457809150506100b9565b80806100af906101ae565b915050610068565b505b919050565b600080fd5b6000819050919050565b6100d6816100c3565b81146100e157600080fd5b50565b6000813590506100f3816100cd565b92915050565b60006020828403121561010f5761010e6100be565b5b600061011d848285016100e4565b91505092915050565b61012f816100c3565b82525050565b600060208201905061014a6000830184610126565b92915050565b7f4e487b7100000000000000000000000000000000000000000000000000000000600052603260045260246000fd5b7f4e487b7100000000000000000000000000000000000000000000000000000000600052601160045260246000fd5b60006101b9826100c3565b91507fffffffffffffffffffffffffffffffffffffffffffffffffffffffffffffffff8214156101ec576101eb61017f565b5b60018201905091905056fea26469706673582212205db4dbbaae43fc405a451341fe5a2049102a26df2fb547bd794ab0892d3e5eb164736f6c634300080c0033",
  "immutableReferences": {},
  "source": "pragma solidity ^0.8.12;\r\n\r\ncontract TestContract {\r\n    uint256[] randomNum = [23, 1, 3, 4];\r\n\r\n    function findPosition(uint256 x) public view returns (uint256) {\r\n        for (uint256 i = 0; i < randomNum.length; i++) {\r\n            if (x == randomNum[i]) {\r\n                return i;\r\n            }\r\n        }\r\n    }\r\n}",
  "sourcePath": "C:\\Users\\Pablo\\Desktop\\DappPrimera\\Test\\contracts\\TestContract.sol",
  "compiler": {
    "name": "solc",
    "version": "0.8.12+commit.f00d7308.Emscripten.clang"
  },
  "schemaVersion": "3.4.6",
  "updatedAt": "2022-03-22T00:48:06.893Z",
  "networkType": "ethereum",
  "devdoc": {
    "kind": "dev",
    "methods": {},
    "version": 1
  },
  "userdoc": {
    "kind": "user",
    "methods": {},
    "version": 1
  }
}